:020000040800F2
:10000000600300208D0100089101000893010008A1
:100010009501000897010008990100080000000000
:100020000000000000000000000000009B0100082C
:100030009D010008000000009F010008A1010008C8
:10004000170B0008A3010008A3010008CD11000848
:10005000A3010008A301000875120008A30100080D
:10006000A3010008A3010008A3010008A3010008E0
:10007000A3010008A3010008A3010008A3010008D0
:10008000A3010008A3010008A3010008A3010008C0
:10009000A3010008A3010008A3010008A3010008B0
:1000A000A3010008A3010008A3010008A3010008A0
:1000B000A3010008650B0008A3010008A3010008C4
:1000C000A3010008A3010008A3010008A301000880
:1000D000A3010008A3010008A3010008B908000853
:1000E000A3010008A3010008A301000800F002F822
:1000F00000F03AF80AA090E8000C82448344AAF188
:100100000107DA4501D100F02FF8AFF2090EBAE885
:100110000F0013F0010F18BFFB1A43F0010318473B
:10012000B81B0000D81B0000103A24BF78C878C163
:10013000FAD8520724BF30C830C144BF04680C60ED
:10014000704700000023002400250026103A28BF35
:1001500078C1FBD8520728BF30C148BF0B60704739
:100160001FB51FBD10B510BD01F087F91146FFF78F
:10017000F7FF00F025F801F0A5F903B4FFF7F2FF4F
:1001800003BC00F08BFB000030BF000008480047B4
:10019000FEE7FEE7FEE7FEE7FEE7FEE7FEE7FEE737
:1001A000FEE7FEE703480449024A044B704700009B
:1001B000ED000008600100206003002060010020C5
:1001C000092000F010FB482000F09EF94FF4165172
:1001D000242000F09DFB00F013FC01F087F800F0F4
:1001E00005F801E000F034F9FCE7000010B541F635
:1001F0001F41142000F0CEFCB848008820F0010018
:10020000B6490880B648806940F00800B449886162
:10021000B448006820F47020B249086008460068BD
:1002200040F440300860AF480830006820F4805047
:10023000AC490831086010BD30B502464FF6FF707A
:1002400001B9012111E01478604000230AE010F0A8
:10025000010F04D040104AF20104604000E0401059
:100260005C1CE3B2082BF2DB521C0C00A1F101056F
:10027000E9B2E8D130BD002004E000219A4A1154CF
:10028000411C88B26428F8DB7047002004E000219C
:10029000964A1154411C88B26428F8DB704770B547
:1002A00005460E468F480830006840F480508D495E
:1002B00008310860002404E0285D00F01FFB601C8A
:1002C00084B2B442F8DB87480830006820F48050DC
:1002D00084490831086070BD2DE9F041FFF7D5FF72
:1002E0008148C0788049897800EB012086B27E4839
:1002F00040797D49097900EB012087B2082E27DA81
:100300007B4820F816707B480078784908700620F2
:1003100048707548807888707348C078C870724893
:1003200000790871704840794871062421466F4869
:10033000FFF782FF05466D498D712812C8710820AC
:100340006D490880084601886848FFF7A8FF02E069
:10035000042000F0D3FABDE8F0812DE9F04100243B
:1003600017E0204601F05BF8614921F8140031F8EC
:10037000140001F0DEF807464FF066325F4B01F0E3
:10038000EBF8054601F0A8F8594921F81400601C63
:10039000C4B2082CE5DBBDE8F0812DE9F0474FF051
:1003A00000090025FFF771FFFFF7D7FF4E48C0781F
:1003B0004D49897800EB01201FFA80F94A484079BD
:1003C0004949097900EB012085B209EB05000828AD
:1003D00039DC4848007845490870032048706806B1
:1003E000000E8870032400274E4611E0404830F884
:1003F000160000123D490855601C84B23C4810F8B4
:1004000016000855601C84B2701C86B2781C87B236
:10041000AF42EBDBE1B23548FFF70EFF80463349D0
:1004200001F80480601C84B24FEA2820085503209C
:1004300000EB4500801C30490880084601882B48A5
:10044000FFF72DFF02E0042000F058FABDE8F08726
:1004500038B52B48007801283FD12348007825493A
:100460000978884232D127480078801EC1B21E48E0
:10047000FFF7E2FE0446E0B28DF8000020128DF88E
:10048000010020480088401E1749085C9DF80110B3
:1004900088421AD11B480088801E1349085C9DF8C9
:1004A0000010884211D110484078032802D0062855
:1004B00006D102E0FFF771FF06E0FFF70DFF03E052
:1004C000032000F01BFA00BF00BF00BFFFF7D3FE00
:1004D00000200C4908800A49087038BD000400401B
:1004E00000100240040C01408C0000201800002085
:1004F0007C00002001000020040000206666FA3F16
:1005000000000020020000204FF0E021096921F0E6
:1005100004014FF0E0221161C21700EB5272C2F3E6
:10052000C702224B1A701946097801EB4102C2EB4F
:10053000C1114FF6FF7202EAC1011D4A11807047D6
:1005400001461B4A12884A434FF0E0235A610022B9
:100550009A6101221A6100BF4FF0E022106910F089
:10056000010F02D010F4803FF6D000224FF0E023BC
:100570001A619A61704701460C4A12784A434FF05B
:10058000E0235A6100229A6101221A6100BF4FF0F4
:10059000E022106910F0010F02D010F4803FF6D075
:1005A00000224FF0E0231A619A6170470600002094
:1005B00008000020AC4A0A400243AC4B1A60704766
:1005C0000146072323EA01021202A84B1B1D1868EB
:1005D0004FF6FF031840A64B18431043A34B1B1DB7
:1005E000186070472DE9F0478046894614461D463D
:1005F0002046E11704EB9171C1F3870AE11704EB80
:1006000091718910A4EB8101CFB2042000EBC700E7
:10061000C7B22846FFF7D4FFC5F1040008FA00F678
:100620000F20284100EA0900064306F00F06202C9F
:100630000CDA904801684FF0010000FA04F041EA3A
:1006400000014FF0E020C0F800110DE08A4800687A
:10065000A4F120014FF0010202FA01F240EA020087
:100660004FF0E021C1F80401844850F82A0006FA4E
:1006700007F140EA0100814941F82A00BDE8F0870E
:1006800070B504460B46CE1701EB9676C6F387008D
:10069000CE1701EB9676B610A1EB8606B606350EA0
:1006A000774B9B6943F00103754EB3614FEAB63354
:1006B00053F820300F26AE40B343724E46F8203038
:1006C000334653F8203004FA05F61E436D4B43F8C9
:1006D00020606D4B1B6801268E4033436A4E3360A9
:1006E00012F0010F08D0684B0C331B6801268E40B6
:1006F0003343654E0C36336012F0020F08D0624B64
:1007000008331E6801238B401E435F4B08331E6075
:1007100070BD00B500205A490861C86014204861C6
:1007200000208861C8610846006840F00100086048
:1007300008464068554908405149486008460068E5
:10074000534908404E4908600846006820F480205C
:1007500008600846406820F4FE0048600020886079
:1007600000214FF00060FFF725FF00BD10B53F48A6
:100770000830006840F004003C49083108604048F7
:10078000C06940F080503E49C8614248406840F42A
:100790008070404948600846006840F004000860E6
:1007A0000846006840F002000860FFF7EDFC10BD4D
:1007B0002F48001D2D49091D086070470146490654
:1007C0002F4A926942F001022D4B9A612D4A083A54
:1007D000526822F0E0622B4B083B5A601A4652687E
:1007E0000A435A60704730B504460025FFF791FF71
:1007F0002348006840F480302149086000BF204849
:100800000068400CFBD04FF480601D494860A01E7A
:10081000C4B20846406840EA8440486008464068E0
:1008200040F4803048601C48006840F032001A49AB
:1008300008601348006840F080701149086000BFEC
:100840000F480068400EFBD00D48406840F00200A1
:100850000B49486005E00A484068C0F3870505F089
:100860000305022DF7D130BD80FFFF1F08ED00E02A
:100870000000FA0500E100E004E100E000E400E02F
:100880000010024008000140000401400000FFF891
:10089000FFFFF6FE0070004000200240014600BF4E
:1008A000704700BF504A128812F0400FFAD0C2B20F
:1008B0004D4B1B1D1A80704710B54B48008810F037
:1008C000200F1AD049480088642812DA4648001DD3
:1008D0000088C4B2464845490988445443480088C2
:1008E000401C4249088041F61F41142000F052F993
:1008F00003E03D48001D0088C4B210BD3A49091DFF
:10090000088000BF3849098811F0400FFAD07047BD
:100910002DE9F05F05460E46300101F05FF8814693
:10092000344905FB01F001F059F88246494600F0D0
:1009300073FF0746384601F031F884B2204601F0D3
:100940004DF88346394601F029F982464FF083413C
:1009500001F058F8814601F021F880464FF6FF700B
:1009600000EA041404EB080084B22348806940F0D4
:100970000800214988610846C06940F48020C861A8
:100980001E48006820F47F401C4908600846006843
:1009900040F40B4008601848006940F48020164974
:1009A00008610846006920F4802008610E4808307C
:1009B0000480001D008842F20C0108430A490C31F2
:1009C00008800846008840F4807008800846008847
:1009D00040F0200008800223272201210846FFF76B
:1009E00001FEBDE8F09F000000480040020000202A
:1009F0008C00002040420F0000100240040C014017
:100A00001848806940F004001649886108468069EA
:100A100040F0200088611448006820F00F0012495F
:100A200008600846006840F0030008600E4808307F
:100A3000006840F480700C49083108600B48006879
:100A400020F47060094908600846006840F440706E
:100A5000086006480C30006840F0040003490C317F
:100A60000860704700100240040801400014014073
:100A700045F25552364B1A601A46506091604AF65C
:100A8000AA221A604CF6CC421A6070474AF6AA2095
:100A90002F490860704770B506460C4615462D482C
:100AA000C06940F400602B49C8612B480078304091
:100AB000294908702948006840EAC510274908609C
:100AC0000846006840F400700860084600684FF669
:100AD000807108402149086008460068204308608A
:100AE000081F00681C49097841F0800108431B4930
:100AF000091F08600223002203211846FFF772FD38
:100B000070BD1649091F096800F07F021143134A9E
:100B1000121F1160704710B51048006800F07F0385
:100B20000E48001F006800F07F049C4203DA0A4868
:100B30000078FFF7E6FF00200849091D0860084813
:100B4000006808B9012000E000200549086010BDD8
:100B500000300040001002400A000020042C004039
:100B6000888122424448008810F0010F0BD043488E
:100B7000006808B9012000E00020404908604FF0FB
:100B800001003F4908703C48008820F001003A49C4
:100B90000880704770B505460C463A48C06940F079
:100BA00002003849C86134481C300580001F0480A9
:100BB00000203149143108802F48001F008840F080
:100BC00001002D49091F08802B481038008840F08B
:100BD000090029491039088002231D220321012020
:100BE000FFF700FD70BD274AD26942F00202254B93
:100BF000DA61254A126822F00F02234B1A601A4666
:100C0000126842F004021A601A1F126822F0704241
:100C10001B1F1A601A46126842F030421A601A4AC4
:100C20000832126842F08002174B08331A60124AE9
:100C30001C321080121F11800F4A0832128842F4B1
:100C4000E0420D4B08331A801A46128842F40062C3
:100C50001A80094A1032128842F01002064B1033F3
:100C60001A80DA13044B103B1A801A46128842F09D
:100C700001021A807047000010040040888122425F
:100C8000000000200010024004080140F0B50346B7
:100C90000C461546642093FBF0F0C6B2642093FB2B
:100CA000F0F700FB1730C1B2132E02DD01F1640032
:100CB000C1B20846CF1701EB977701EBA707BAB28D
:100CC000072092FBF0F700FB172082B25719601E35
:100CD000DFF864C41CF80000384482B2CF1701EB7F
:100CE0009777BF10B1EB870703D1032C01DA501EB1
:100CF00082B2072092FBF0F700FB1720C0B2F0BDD4
:100D00000146CA1701EB92729210B1EB820212D126
:100D1000642091FBF0F200FB121050B94FF4C87040
:100D200091FBF0F200FB121008B90120704700207F
:100D3000FCE70120FAE70020F8E770B50026002460
:100D40000025FE4806883604001D00880644FC483D
:100D5000B6FBF0F4FB480088A0423AD0F9490C8079
:100D600040F2B2750EE02846FFF7CAFF30B1B4F585
:100D7000B77F02D3A4F5B77402E006E0A4F26D14C5
:100D8000681C85B2B4F5B67FEDD800BFEE4885800B
:100D9000002516E0EC498888FFF7B2FF30B1012D3D
:100DA00004D11D2C01D31D3C09E00CE0E748405D57
:100DB000A04203D8E548405D241A00E003E0681C27
:100DC00085B21C2CE6D200BF681CDF498871601C0C
:100DD000C871DB48B6FBF0F100FB11644FF46160B1
:100DE000B4FBF0F0D84908704FF46160B4FBF0F147
:100DF00000FB11403C21B0FBF1F0D34948704FF4A7
:100E00006160B4FBF0F100FB11403C21B0FBF1F25A
:100E100001FB1200CC4988700B46DA7999799888E1
:100E2000FFF734FFC8490872002070BD2DE9F04774
:100E300005460E4617469846DDE9089A002340F21B
:100E4000B270854203DB40F63300854202DD0120AB
:100E5000BDE8F08740F2B2740AE02046FFF750FF89
:100E600010B1BB48034401E0BA480344601C84B29B
:100E7000AC42F2DB701EC6B2002410E0B348005D45
:100E800040F2A321484303EBC0132846FFF738FF85
:100E900018B1012C01D1AA480344601C84B2B442A9
:100EA000ECDB781E40F2A321484303EBC013C8EBF0
:100EB0004810C0EB082003EB0013C9EB091003EB4B
:100EC00080035344A448C06940F08050A249C861DF
:100ED0000846C06940F00060C861A048006840F45E
:100EE00080709E49086095481438008840F01000D2
:100EF0009249143908809149091D0B80180C091F6B
:100F000008808E481438008820F010008B4914396E
:100F1000088000BF89481438008810F0200FF9D0ED
:100F2000002095E770B50346002409E013F8015B43
:100F300011F8016BB54201D0002070BD601CC4B235
:100F40009442F3DB0120F8E72DE9FE47002406E098
:100F500083480068005D02A90855601CC4B2032CD8
:100F6000F6DB00240BE004EB44017E4A88180322E0
:100F700002A9FFF7D7FF00B103E0601CC4B20C2C3C
:100F8000F1DB00BF601CC6B27548006800792028FC
:100F900005D17348006840793038C5B20BE070481D
:100FA000006841796E480068007930380A2202FBF7
:100FB00000103038C5B26A480068C07930384FF444
:100FC0007A71484366490968097A3039642202FB1C
:100FD000010163480068407A30380A2202FB0010A1
:100FE0005F490968897A0844303887B25E480068EA
:100FF00041785D4800680078303802FB00103038D6
:1010000000F0FF0A58480068017957480068C07826
:10101000303802FB0010303800F0FF0952480068F9
:10102000C179514800688079303802FB00103038AF
:1010300000F0FF0853462A4631463846CDE900986D
:10104000FFF7F4FEBDE8FE8710B50024474800888E
:10105000A0F5A04150396DD03F48C06940F08050A4
:101060003D49C8610846C06940F00060C8613B481E
:10107000006840F48070394908603748006A40F4DD
:101080008030354908620846006A20F480300862E2
:101090000846006A40F00100086204E0601CC4B227
:1010A0000A20FFF74DFA2C48006A10F0020F01D118
:1010B000FA2CF3DBFA2C01DB012010BD2648006A74
:1010C00040F48070244908620846006A40F40040F9
:1010D000086200BF19481438008810F0200FF9D0BA
:1010E00000BF16481438008810F0080FF9D01348D4
:1010F0001838008840F0010010491839088000BFF6
:101100000E481438008810F0200FF9D00B4814381E
:10111000008840F010000949143908800020091D9A
:10112000088047F6FF70091D0880FFF70DFF034890
:1011300014381DE02CE000009A1C0008182800401C
:10114000805101000C000020F0000020A61C0008C7
:101150000085E2018033E101001002400070004090
:1011600010000020B21C000814000020046C004095
:10117000008820F010002649088000BF244800881D
:1011800010F0200FFAD045F250002249088013E0F9
:1011900000BF1F48008810F0080FFAD01C48001F3D
:1011A000008840F001001A49091F088000BF184854
:1011B000008810F0200FFAD00223032200210846F5
:1011C000FFF710FAFFF7B9FD002076E700B51048E9
:1011D000008810F0010F01D0FFF7AFFD0C48008828
:1011E00010F0020F05D00A48008820F002000849DC
:1011F00008800748008840F6FA71084004490880D2
:1012000000BF0348008810F0200FFAD000BD000096
:1012100004280040046C004010B52F48C06840F41A
:10122000FE702D49C860FFF7A1FA10BD70B500250A
:1012300000240020294908601BE02948006818B1F3
:10124000681CC5B2002409E0601CC4B2032C05DD93
:101250000120224908604FF0000070BD1E20FFF7FA
:101260006FF9642D05DB00201C4908604FF0010078
:10127000F3E7E2E710B501201A490860FFF7D6FF4F
:1012800008B1FFF7C9FF10BD10B51348806940F0E1
:101290000400114988610846806940F001008861B6
:1012A0001148006820F00F000F49086008460068E8
:1012B00040F008000860022200210846FFF7E0F92C
:1012C000FFF7B4FF08B9FFF751FA022306221946C7
:1012D0001846FFF787F910BD00100240A001214217
:1012E0000001214214040140000801405C4880696B
:1012F00040F004005A4988615A4800680020594962
:1013000008605748806940F4007055498861084674
:10131000C06840F40070C8600846C06820F40070DF
:10132000C8600846406820F440404860084640686D
:1013300040F4004048604C4800684C4908404A4925
:1013400008600846006808600846006820F480705D
:101350000860081D006820F00200091D08600846AA
:10136000006820F4602008600846006840F46020AF
:1013700008600846006840F480100860084600686D
:1013800020F40060086038482830006820F47000BD
:101390003549283108600846006800200860324856
:1013A0000C3000686FF30B002F490C3108600846C1
:1013B000006840F4606008600846006840F4E0702F
:1013C00008600846006840F0380008600846006879
:1013D00040F0070008602448001D006840F001004C
:1013E0002149091D08600846006840F008000860AF
:1013F00000BF1D48001D006810F0080FF9D11A4801
:10140000001D006840F004001749091D086000BF76
:101410001548001D006810F0040FF9D1704701460F
:1014200011483030006820F01F000F4A3032106041
:1014300010460068084310600B48001D006840F427
:101440008000094A121D106000BF0748001F006895
:1014500010F0020FF9D004484830006880B270479D
:10146000001002400008014004240140FFFFF0008A
:1014700070477047704770477047754600F028F80E
:10148000AE4605006946534620F00700854618B071
:1014900020B5FEF787FEBDE820404FF000064FF074
:1014A00000074FF000084FF0000B21F00701AC4699
:1014B000ACE8C009ACE8C009ACE8C009ACE8C009B8
:1014C0008D4670470446AFF300802046FEF755FE78
:1014D00000487047FC0000204FEA1153A3F58063D9
:1014E000D3F11E03A8BFD3F1200C08DB4FF000425C
:1014F00042EAC12252EA505232FA03F070470942DE
:101500000BD4102BC4BF0020704703F5787CBCF1CE
:10151000FF3F05D04FF0FF3070474FF0000070479D
:1015200070B500F0C3F800BF4992248000207047D6
:10153000F0E7B0FA80F310FA03F10AD0C3F11D030B
:1015400003F580634FEA41504FEA035202EBD12189
:1015500070474FF000007047DFF848C170B51CEAD3
:10156000111E1EBF1CEA13159EEA0C0F95EA0C0F04
:1015700000F06F8081EA030423EA4C134EEAD47E24
:1015800021EA4C1141F4801143F48013AE44A1FBD5
:10159000024CA0FB0365AEF17F7E361955EB0C05BE
:1015A000A1FB034C4CF10003A0FB021C16EB0C0644
:1015B000654153F10003094218BF46F0010613F4D8
:1015C000007F0BD14FEA03314FEA0530340341EA83
:1015D000155140EA16506FF003020AE04FEAC321AA
:1015E0004FEAC520F40241EA555140EA56506FF0E7
:1015F000020202EB2E4201EB025585EACE710AD0BF
:101600005FEA440C18BF24F0004450F1000041F19F
:10161000000120EAD47040F2FE7C624500D270BD29
:10162000A84214BF4FF080444FF04044002E08BF42
:101630000024BEF1806FA8BFA1F1C041BDE8704099
:1016400080F282804FF0000001F1C04101F00041C2
:1016500070479EEA0C0F0CEA131518BF95EA0C0FA1
:1016600006D04FF0000081EA030E0EF0004170BD7D
:1016700000F01CF88900013E00F007B800F009B83E
:101680004FEA430C5FEA5C5C08D081EA030100F09A
:101690005BB84FEA410C5FEA5C5CF6D14FF00000AA
:1016A000014970470000FF070000F87F0EF1020EAD
:1016B0002EF0030E5EF8046B364205D4012A43EB8C
:1016C000030515F5001F12D8012841EB010C1CF58C
:1016D000001F0CD80ED14FEAD17C15F5001F0CEB82
:1016E0004C0C0CF1020C08BF4CEBD37C04E04FF027
:1016F000080C01E04FEAD37C0CEB4C0526FA05F60A
:1017000006F00706B6F1040C06D20EEB860CBDE817
:1017100070404CF0010C6047DFE80CF0090B02024E
:101720004FF000414FF00000A1F5002170BD1946B7
:101730001046012851EB010418BFD4F5001484BFF2
:10174000002001F0004170BD0808A0F500114FEA2B
:101750003101704790EA010F48BF81F0004100F16C
:101760002E82421A3CBF801A89184FEAD0524FF09D
:101770007F4C1CEA410FA2EBD15318BF9CEA026FC9
:1017800000F03B804FF0004C4CEA00204CEA012175
:1017900021FA03FC10EB0C0C1ED202F1FF325FEABF
:1017A0001C2040EBC25038BF70471CF07F0F4FEA3F
:1017B000400C18BFBCF17F4F38BF7047C3F1200306
:1017C000994008BF20F00100BCF17F4F38BF70473F
:1017D000A0F1C04000F0DDB94FEA3C00000A40EB48
:1017E000C25028BF1CF0FF0F4FEA400CE6D018BFD4
:1017F000BCF17F4F38BF7047EAE79CEA026F05D023
:1018000010EA5C0F08BF00F00040704710B500F010
:101810007AF900BF64FBBE3E4FF47F0C1CEAD01285
:101820001EBF1CEAD11392EA0C0F93EA0C0F00F0D2
:10183000858090EA010F48BF42F4807240F4000CAA
:1018400041F400002CF07F4120F07F4000B5814240
:10185000A2EB03020FF2081CACEB504EC0F10000EB
:101860009EF800E04FEA4E0E00FB0EFC38BF490028
:101870004FEA2C1C02F5FA020CFB0EF34FEACE1EC7
:101880004FEA112C4FEAC1210EEB635E42EB22427C
:101890000EFB0CFC4FEA1C5300FB03114FEA112C0A
:1018A0004FEA01310EFB0CFC4FEADC4C00FB0C1143
:1018B000C14228BF09184CEB03335DF804EB10EB71
:1018C000410143EBC250B2F57C0F38BF704729D5B8
:1018D00012F0F00F1CBF00F1C04000F00040704754
:1018E000008182838485868788898B8C8D8E8F91F9
:1018F0009293959697999A9C9D9FA0A2A3A5A7A81D
:10190000AAACAEB0B2B3B5B7B9BCBEC0C2C5C7C948
:10191000CCCED1D4D7D9DCDFE2E6E9ECF0F3F7FAAC
:10192000FE0000004FEA400C0CF1807CBCF17E4FC1
:1019300028BF7047B0F1C04000F02BB990EA010F0A
:101940000CEAD11348BF42F48072624538BF634548
:1019500007D213F47F0F16D080EA010000F0004098
:10196000704710B500F0CFF8097EFC3E00F005B8D6
:1019700080EA010000F00040704780EA010000F0BA
:10198000004000F006B912F47F0F04BF0248704710
:1019900080EA010000F0FDB80000C07FC10DD1F168
:1019A0009E0206DB4FEA002343F0004323FA02F0D5
:1019B0007047004207D54FEA4001B1F1FE4F02D215
:1019C0004FF00000704710B500F09DF84992248058
:1019D000002070476FEA200070470000B0FA80F3E3
:1019E00010FA03F2C3F19D030AD0D90501EB1220CE
:1019F000530638BF704700F1010008BF20F0010016
:101A0000704700004FF47F0C1CEAD0121EBF1CEA86
:101A1000D11392EA0C0F93EA0C0F00F0478090EA82
:101A2000010F48BF42F480724FF0004C4CEA002096
:101A30004CEA012102EB0302A0FB0113A2F5000214
:101A4000002918BF43F001035B0028BF4FEA3303AE
:101A500042EB22425FEA132C4CEBC2502EBFBCEB90
:101A6000436FB2F57C0F70474FEA036CBCF1004F37
:101A700008BF20F00100B2F57C0F38BF70470BD5CE
:101A800082F0FF0212F5803FC8BF704700F1C040EE
:101A9000D8BF00F00040704700F5000C5FEA4C0C26
:101AA00048BF7047B0F1C04000F073B890EA010F32
:101AB0000CEAD11348BF42F48072624538BF6345D7
:101AC00004D280EA010000F00040704710B500F039
:101AD0001AF800BF8900013E00F007B800F009B80D
:101AE0005FEA410C5FEA1C6C08D080EA010000F05C
:101AF00050B85FEA400C5FEA1C6CF6D14FF0004032
:101B0000A0F5800070470EF1020E2EF0030E5EF875
:101B1000044B244204D44FEA4102B2F17F4F11D862
:101B20004FEA4003B3F17F4F0CD80ED14FEAD07C7F
:101B3000B2F17F4F0CEB4C0C0CF1020C08BF4CEBDC
:101B4000D17C04E04FF0080C01E04FEAD17C0CEBB3
:101B50004C0324FA03F404F00704B4F1040C06D295
:101B60000EEB840CBDE810404CF0010C6047DFE840
:101B70000CF0070802024FF00040A0F5800010BDF5
:101B80000846420018BFD2F1807288BF00F00040C2
:101B900010BDFF2141EAD050C005704780F00040E1
:101BA00090EA010F7FF5DDAD81F0004100F007B84C
:101BB00090EA010F48BF81F000413FF5D2AD421AD3
:101BC00004D882F00042A0EB020011444FEAD05248
:101BD0004FF07F4C1CEA410FA2EBD15318BF9CEA97
:101BE000026F4AD04FF0004C4CEA00204CEA012131
:101BF00021FA03FCB0EB0C0C0FD412F0FE0F36D020
:101C00005FEA4C001DD5001240EBC25038BF704750
:101C10001CF03F0F18BF70470BE0A2F101025FEA12
:101C20001C2040EBC25038BF70471CF07F0F18BF1C
:101C30007047C3F12003994014BF401E20F00100FB
:101C4000704780084FEA122308BF7047B0FA80FC43
:101C5000A2EB0C02CCF1280C60FA0CF093EA122FE4
:101C600004BF00EBC25070474FEAC3707047130ABD
:101C70005FEADC1008BF7047F6E79CEA026F04D009
:101C800010EA5C0F08BF0020704710B5FFF73BFF5C
:101C900040DFF63E81F00040704700030306010478
:101CA0000602050003051F1C1F1E1F1E1F1F1E1FEF
:101CB0001E1F4A616E4665624D61724170724D61D0
:101CC000794A756E4A756C4175675365704F6374D8
:101CD0004E6F764465630000F81C00080000002089
:101CE0001800000028010008101D0008180000203E
:101CF000480300004401000800010000000000004B
:101D000000007F0000000000000000000000000054
:04000005080000ED02
:00000001FF
